{
  "_format": "hh-sol-artifact-1",
  "contractName": "TouristKYC",
  "sourceName": "contracts/TouristKYC.sol",
  "abi": [
    {
      "anonymous": false,
      "inputs": [
        {
          "indexed": true,
          "internalType": "address",
          "name": "user",
          "type": "address"
        },
        {
          "indexed": false,
          "internalType": "string",
          "name": "cid",
          "type": "string"
        },
        {
          "indexed": false,
          "internalType": "uint256",
          "name": "date",
          "type": "uint256"
        }
      ],
      "name": "KYCStored",
      "type": "event"
    },
    {
      "inputs": [
        {
          "internalType": "address",
          "name": "user",
          "type": "address"
        }
      ],
      "name": "getCidForUser",
      "outputs": [
        {
          "internalType": "string",
          "name": "",
          "type": "string"
        }
      ],
      "stateMutability": "view",
      "type": "function"
    },
    {
      "inputs": [
        {
          "internalType": "address",
          "name": "",
          "type": "address"
        }
      ],
      "name": "kycs",
      "outputs": [
        {
          "internalType": "string",
          "name": "cid",
          "type": "string"
        },
        {
          "internalType": "uint256",
          "name": "date",
          "type": "uint256"
        }
      ],
      "stateMutability": "view",
      "type": "function"
    },
    {
      "inputs": [
        {
          "internalType": "address",
          "name": "user",
          "type": "address"
        },
        {
          "internalType": "string",
          "name": "cid",
          "type": "string"
        }
      ],
      "name": "storeCidForUser",
      "outputs": [],
      "stateMutability": "nonpayable",
      "type": "function"
    }
  ],
  "bytecode": "0x608060405234801561001057600080fd5b5061094b806100206000396000f3fe608060405234801561001057600080fd5b50600436106100415760003560e01c80637db0f3a914610046578063e8ab32ef14610062578063f4af1b3814610093575b600080fd5b610060600480360381019061005b91906104c4565b6100c3565b005b61007c60048036038101906100779190610520565b61018d565b60405161008a9291906105e5565b60405180910390f35b6100ad60048036038101906100a89190610520565b610239565b6040516100ba9190610615565b60405180910390f35b6040518060400160405280828152602001428152506000808473ffffffffffffffffffffffffffffffffffffffff1673ffffffffffffffffffffffffffffffffffffffff168152602001908152602001600020600082015181600001908161012b9190610843565b50602082015181600101559050508173ffffffffffffffffffffffffffffffffffffffff167fda32f0cfa525fb38172d7692a081ca98bd591d0461c0e3ec1d5017ab498b8e6482426040516101819291906105e5565b60405180910390a25050565b60006020528060005260406000206000915090508060000180546101b090610666565b80601f01602080910402602001604051908101604052809291908181526020018280546101dc90610666565b80156102295780601f106101fe57610100808354040283529160200191610229565b820191906000526020600020905b81548152906001019060200180831161020c57829003601f168201915b5050505050908060010154905082565b60606000808373ffffffffffffffffffffffffffffffffffffffff1673ffffffffffffffffffffffffffffffffffffffff168152602001908152602001600020600001805461028790610666565b80601f01602080910402602001604051908101604052809291908181526020018280546102b390610666565b80156103005780601f106102d557610100808354040283529160200191610300565b820191906000526020600020905b8154815290600101906020018083116102e357829003601f168201915b50505050509050919050565b6000604051905090565b600080fd5b600080fd5b600073ffffffffffffffffffffffffffffffffffffffff82169050919050565b600061034b82610320565b9050919050565b61035b81610340565b811461036657600080fd5b50565b60008135905061037881610352565b92915050565b600080fd5b600080fd5b6000601f19601f8301169050919050565b7f4e487b7100000000000000000000000000000000000000000000000000000000600052604160045260246000fd5b6103d182610388565b810181811067ffffffffffffffff821117156103f0576103ef610399565b5b80604052505050565b600061040361030c565b905061040f82826103c8565b919050565b600067ffffffffffffffff82111561042f5761042e610399565b5b61043882610388565b9050602081019050919050565b82818337600083830152505050565b600061046761046284610414565b6103f9565b90508281526020810184848401111561048357610482610383565b5b61048e848285610445565b509392505050565b600082601f8301126104ab576104aa61037e565b5b81356104bb848260208601610454565b91505092915050565b600080604083850312156104db576104da610316565b5b60006104e985828601610369565b925050602083013567ffffffffffffffff81111561050a5761050961031b565b5b61051685828601610496565b9150509250929050565b60006020828403121561053657610535610316565b5b600061054484828501610369565b91505092915050565b600081519050919050565b600082825260208201905092915050565b60005b8381101561058757808201518184015260208101905061056c565b60008484015250505050565b600061059e8261054d565b6105a88185610558565b93506105b8818560208601610569565b6105c181610388565b840191505092915050565b6000819050919050565b6105df816105cc565b82525050565b600060408201905081810360008301526105ff8185610593565b905061060e60208301846105d6565b9392505050565b6000602082019050818103600083015261062f8184610593565b905092915050565b7f4e487b7100000000000000000000000000000000000000000000000000000000600052602260045260246000fd5b6000600282049050600182168061067e57607f821691505b60208210810361069157610690610637565b5b50919050565b60008190508160005260206000209050919050565b60006020601f8301049050919050565b600082821b905092915050565b6000600883026106f97fffffffffffffffffffffffffffffffffffffffffffffffffffffffffffffffff826106bc565b61070386836106bc565b95508019841693508086168417925050509392505050565b6000819050919050565b600061074061073b610736846105cc565b61071b565b6105cc565b9050919050565b6000819050919050565b61075a83610725565b61076e61076682610747565b8484546106c9565b825550505050565b600090565b610783610776565b61078e818484610751565b505050565b5b818110156107b2576107a760008261077b565b600181019050610794565b5050565b601f8211156107f7576107c881610697565b6107d1846106ac565b810160208510156107e0578190505b6107f46107ec856106ac565b830182610793565b50505b505050565b600082821c905092915050565b600061081a600019846008026107fc565b1980831691505092915050565b60006108338383610809565b9150826002028217905092915050565b61084c8261054d565b67ffffffffffffffff81111561086557610864610399565b5b61086f8254610666565b61087a8282856107b6565b600060209050601f8311600181146108ad576000841561089b578287015190505b6108a58582610827565b86555061090d565b601f1984166108bb86610697565b60005b828110156108e3578489015182556001820191506020850194506020810190506108be565b8683101561090057848901516108fc601f891682610809565b8355505b6001600288020188555050505b50505050505056fea26469706673582212202e357cc320c24d9f79a4d71ac345628e1e24afb0b53952593e1a7c11b80b7b6d64736f6c63430008140033",
  "linkReferences": {},
  "deployedLinkReferences": {}
}